:100000000C9434000C9451000C9451000C94510049
:100010000C9451000C9451000C9451000C9451001C
:100020000C9451000C9403020C9451000C94510058
:100030000C9451000C94C5000C9451000C94510088
:100040000C9451000C9451000C94A3020C94D10216
:100050000C9451000C94A9010C9451000C94510083
:100060000C9451000C94510011241FBECFEFD8E026
:10007000DEBFCDBF11E0A0E0B1E0ECEFF6E002C0E2
:1000800005900D92AC33B107D9F721E0ACE3B1E0B4
:1000900001C01D92AA38B207E1F70E946C000C94CF
:1000A0007C030C940000FC01408121E030E002C0A0
:1000B000220F331F6A95E2F7242B20830895FC0159
:1000C000908121E030E002C0220F331F6A95E2F7F1
:1000D000209529232083089561E087E290E00E9423
:1000E000530061E088E290E00E945F0084B180628A
:1000F00084B984B1806184B985B18F7D85B985B1BA
:100100008F7E85B963E084E290E00E94530063E053
:1001100085E290E00E945F00ECE7F0E0808180647F
:10012000808380818F7780838081807F8083EAE7EE
:10013000F0E0808180688083808188608083808116
:10014000876080830E94550287E690E00E94FB0250
:10015000E1E8F0E080818A7F808380818260808313
:10016000EFE6F0E0808181608083E1EBF0E0808168
:1001700087608083E0E7F0E080818160808378940D
:1001800081E091E00E942B03FFCF1F920F920FB6E8
:100190000F9211241F932F933F934F935F936F936D
:1001A0007F938F939F93AF93BF93EF93FF93CF93DF
:1001B000DF9300D0CDB7DEB7EAE7F0E0808180645E
:1001C000808380E390E39A83898380910001823069
:1001D00051F0833009F490C0813009F0A1C082E071
:1001E00080930001A0C088EB0E94640280914301CB
:1001F00090914401009721F482E00E94810205C0A1
:10020000019719F480E00E9481028091430190914E
:10021000440102970CF059C00E949F0289EB0E9492
:1002200064020E948B022091430130914401211508
:10023000310531F4482F50E050933F0140933E0187
:100240002130310531F4282F30E0309341012093E3
:1002500040014AE0BE016F5F7F4F90E00E9447037C
:10026000CE0101960E942B030E949502182F0E9436
:100270009F024AE0BE016F5F7F4F812F90E00E9496
:1002800047038FE191E00E942B03CE0101960E946B
:100290002B0381E291E00E942B0380914301909116
:1002A0004401892B21F483E291E00E942B03809189
:1002B000430190914401019721F48BE291E00E9467
:1002C0002B0381E291E00E942B03809143019091E6
:1002D000440101969093440180934301039741F4B4
:1002E00010924401109243018CE191E00E942B0393
:1002F00081E08093000117C040E1BE016F5F7F4F36
:100300008CE590E00E944703CE0101960E942B03EA
:1003100081E291E00E942B0381E08093000103C001
:1003200081E0809300010F900F90DF91CF91FF91BA
:10033000EF91BF91AF919F918F917F916F915F915D
:100340004F913F912F911F910F900FBE0F901F90D3
:1003500018951F920F920FB60F9211242F933F936F
:100360004F935F936F937F938F939F93AF93BF93BD
:10037000EF93FF93CF93DF9300D000D0CDB7DEB7DC
:100380008091430190914401029731F51A821982BC
:100390001C821B82E8E7F0E080819181208131811D
:1003A00030933D0120933C014AE0BE016F5F7F4FD7
:1003B0000E94470380914201811108C0CE0101963D
:1003C0000E942B0384E391E00E942B039091420151
:1003D00081E08927809342010F900F900F900F903A
:1003E000DF91CF91FF91EF91BF91AF919F918F914D
:1003F0007F916F915F914F913F912F910F900FBE21
:100400000F901F9018951F920F920FB60F92112404
:100410002F933F934F935F936F937F938F939F930C
:10042000AF93BF93EF93FF93CF93DF9300D000D0B0
:10043000CDB7DEB71A8219821C821B82E09140017F
:10044000F09141019F013695279536952795ABE7A9
:10045000B4E10E9438039695879544E6489F900141
:10046000499F300D11244AE0BE016F5F7F4FCF01DD
:10047000821B930B0E9447030E942B030F900F9047
:100480000F900F90DF91CF91FF91EF91BF91AF91BE
:100490009F918F917F916F915F914F913F912F919C
:1004A0000F900FBE0F901F90189587B18F7C87B962
:1004B00088B1806388B9E9EBF0E080818C7F80832C
:1004C00088E98093B800089594EA9093BC009091D5
:1004D000BC009923E4F78093BB0084E88093BC00C0
:1004E0008091BC008823E4F78091B900887F88312F
:1004F00021F0803421F480E0089580E0089581E0C7
:1005000008958093BB0084E88093BC008091BC0078
:100510008823E4F7089584EC8093BC008091BC00AC
:100520008823E4F78091BB00089584E88093BC00A1
:100530008091BC008823E4F78091BB00089584E992
:100540008093BC0008951F920F920FB60F92112452
:100550002F938F939F93EF93FF938091C0002091EF
:10056000C6008C71E0914701EF5FEF7190914601F9
:10057000E91739F0E0934701F0E0E65BFE4F208396
:1005800001C082E090914501892B80934501FF9144
:10059000EF919F918F912F910F900FBE0F901F9011
:1005A00018951F920F920FB60F9211248F939F935D
:1005B000EF93FF939091490180914801981769F05A
:1005C000E0914801EF5FEF71E0934801F0E0E659F8
:1005D000FE4F80818093C60005C0E1ECF0E0808191
:1005E0008F7D8083FF91EF919F918F910F900FBE30
:1005F0000F901F9018951092490110924801109287
:10060000470110924601282F392F33231CF422E092
:100610002093C00090789093C5008093C40088E92F
:100620008093C10086E08093C20008952091490123
:100630002F5F2F71909148012917E1F3E22FF0E02D
:10064000E659FE4F808320934901E1ECF0E0808180
:10065000806280830895CF93DF93EC0103C02196DD
:100660000E94160388818111FACFDF91CF910895FE
:10067000A29FB001B39FC001A39F700D811D1124E3
:10068000911DB29F700D811D1124911D0895BB27EE
:100690004A3031F4992322F4BDE2909581959F4F21
:1006A0000C945303BB27FB015527AA27880F991FDA
:1006B000AA1FA41710F0A41B83955051B9F7A05D91
:1006C000AA3308F0A95DA193009779F7B111B1930E
:1006D0001192CB010C946C03DC01FC01672F71912A
:1006E0007723E1F7329704C07C916D937083629118
:0C06F000AE17BF07C8F30895F894FFCFC1
:1006FC00010D0A5363616E204932432D62757320DC
:10070C00666F7220646576696365733A0D0A002E14
:10071C00002000646567726565730068756D6964B7
:0C072C0069747900206C69676874000033
:00000001FF
