:100000000C9434000C943E000C943E000C943E0082
:100010000C943E000C943E000C943E000C943E0068
:100020000C943E000C943E000C943E000C943E0058
:100030000C943E000C943E000C943E000C943E0048
:100040000C943E000C943E000C943E000C943E0038
:100050000C943E000C943E000C943E000C943E0028
:100060000C943E000C943E0011241FBECFEFD8E04C
:10007000DEBFCDBF0E9465000C9489000C94000087
:10008000FC01408121E030E002C0220F331F6A955D
:10009000E2F7242B20830895FC01908121E030E0D9
:1000A00002C0220F331F6A95E2F72095292320838F
:1000B0000895FC01408121E030E002C0220F331F8F
:1000C0006A95E2F724272083089561E087E290E0B3
:1000D0000E94400061E088E290E00E944C002FEF17
:1000E00089EF90E0215080409040E1F700C000008F
:1000F00061E088E290E00E9459008FE39FE1019760
:10010000F1F700C0000061E088E290E00E94590031
:06011000E6CFF894FFCFDA
:00000001FF
