:100000000C9434000C9451000C9451000C94510049
:100010000C9451000C9451000C9451000C9451001C
:100020000C9451000C9451000C9451000C9451000C
:100030000C9451000C947C000C9451000C945100D1
:100040000C9451000C9451000C94D5000C940301B5
:100050000C9451000C9491000C9451000C9451009C
:100060000C9451000C94510011241FBECFEFD8E026
:10007000DEBFCDBF11E0A0E0B1E0E2E4F3E002C0FA
:1000800005900D92A230B107D9F721E0A2E0B1E0CE
:1000900001C01D92A734B207E1F70E9453000C94EF
:1000A0009F010C940000ECE7F0E080818064808385
:1000B00080818F7780838081807F8083EAE7F0E092
:1000C0008081806880838081886080838081876070
:1000D0008083E1E8F0E080818B7F80838081836092
:1000E0008083EFE6F0E080818160808387E690E0A6
:1000F0000E942D017894FFCF1F920F920FB60F929E
:1001000011248F93EF93FF93EAE7F0E080818064FE
:100110008083FF91EF918F910F900FBE0F901F90F2
:1001200018951F920F920FB60F9211242F933F93A1
:100130004F935F936F937F938F939F93AF93BF93EF
:10014000EF93FF93CF93DF9300D000D0CDB7DEB70E
:100150001A8219821C821B8280917800909179000A
:100160004AE0BE016F5F7F4F0E946A01CE01019697
:100170000E945D0180E091E00E945D010F900F9070
:100180000F900F90DF91CF91FF91EF91BF91AF91C1
:100190009F918F917F916F915F914F913F912F919F
:1001A0000F900FBE0F901F9018951F920F920FB6D1
:1001B0000F9211242F938F939F93EF93FF9380912E
:1001C000C0002091C6008C71E0910401EF5FEF71D7
:1001D00090910301E91739F0E0930401F0E0E95F41
:1001E000FE4F208301C082E090910201892B809311
:1001F0000201FF91EF919F918F912F910F900FBE70
:100200000F901F9018951F920F920FB60F92112406
:100210008F939F93EF93FF93909106018091050137
:10022000981769F0E0910501EF5FEF71E093050128
:10023000F0E0E95DFE4F80818093C60005C0E1ECEF
:10024000F0E080818F7D8083FF91EF919F918F916E
:100250000F900FBE0F901F901895109206011092EC
:1002600005011092040110920301282F392F332326
:100270001CF422E02093C00090789093C5008093F6
:10028000C40088E98093C10086E08093C20008958D
:10029000209106012F5F2F71909105012917E1F33D
:1002A000E22FF0E0E95DFE4F808320930601E1EC50
:1002B000F0E08081806280830895CF93DF93EC012A
:1002C00003C021960E94480188818111FACFDF91F5
:1002D000CF910895BB274A3031F4992322F4BDE22F
:1002E000909581959F4F0C947601BB27FB01552774
:1002F000AA27880F991FAA1FA41710F0A41B839583
:100300005051B9F7A05DAA3308F0A95DA1930097F9
:1003100079F7B111B1931192CB010C948F01DC01EB
:10032000FC01672F71917723E1F7329704C07C912C
:100330006D9370836291AE17BF07C8F30895F89468
:02034000FFCFED
:02034200200099
:00000001FF
