:100000000C9434000C9451000C9451000C94510049
:100010000C9451000C9451000C9451000C9451001C
:100020000C9451000C9438020C9451000C94510023
:100030000C9451000C94FA000C9451000C94510053
:100040000C9451000C9451000C9498030C94C6032A
:100050000C9451000C94DE010C9451000C9451004E
:100060000C9451000C94510011241FBECFEFD8E026
:10007000DEBFCDBF11E0A0E0B1E0E2E9F8E002C0F0
:1000800005900D92AE32B107D9F721E0AEE2B1E0B2
:1000900001C01D92AD37B207E1F70E94B8000C9481
:1000A00047040C940000FC01408121E030E002C0D4
:1000B000220F331F6A95E2F7242B20830895FC0159
:1000C000908121E030E002C0220F331F6A95E2F7F1
:1000D0002095292320830895FC01408121E030E010
:1000E00002C0220F331F6A95E2F7242B2083089564
:1000F000FC01408121E030E002C0220F331F6A95ED
:10010000E2F72427208308952FEF89EF90E0215014
:1001100080409040E1F700C0000061E088E290E09C
:100120000E9478008FE39FE10197F1F700C0000083
:1001300061E088E290E00E947800E6CF2FEF89EF3F
:1001400090E0215080409040E1F700C0000061E065
:1001500088E290E00E9478008FE99FE00197F1F734
:1001600000C0000061E088E290E00E947800E6CFE5
:1001700061E087E290E00E94530063E084E290E057
:100180000E94530065E084E290E00E94530064E026
:1001900084E290E00E94530061E088E290E00E94D7
:1001A0005F0063E085E290E00E945F0065E085E229
:1001B00090E00E945F0064E085E290E00E945F00B2
:1001C0002FEF89EF90E0215080409040E1F700C090
:1001D000000061E088E290E00E9478008FE39FE1F8
:1001E0000197F1F700C0000061E088E290E00E9412
:1001F0007800E6CF1F920F920FB60F9211241F9333
:100200002F933F934F935F936F937F938F939F931E
:10021000AF93BF93EF93FF93CF93DF9300D0CDB70E
:10022000DEB7EAE7F0E080818064808380E390E3DA
:100230009A83898380910001823051F0833009F4E0
:1002400090C0813009F0A1C082E080930001A0C07D
:1002500088EB0E94590380913601909137010097F5
:1002600021F482E00E94760305C0019719F480E032
:100270000E947603809136019091370102970CF02D
:1002800059C00E94940389EB0E9459030E94800385
:1002900020913601309137012115310531F4482F75
:1002A00050E050933101409330012130310531F459
:1002B000282F30E030933301209332014AE0BE0111
:1002C0006F5F7F4F90E00E941204CE0101960E9462
:1002D00005040E948A03182F0E9494034AE0BE017D
:1002E0006F5F7F4F812F90E00E94120481E091E0C8
:1002F0000E940504CE0101960E94050483E091E06E
:100300000E9405048091360190913701892B21F4D8
:1003100085E091E00E9405048091360190913701BB
:10032000019721F485E191E00E94050483E091E0CA
:100330000E940504809136019091370101969093B7
:10034000370180933601039741F4109237011092E0
:10035000360183E291E00E94050481E08093000170
:1003600017C040E1BE016F5F7F4F8CE590E00E94B7
:100370001204CE0101960E94050483E091E00E94E0
:10038000050481E08093000103C081E080930001B7
:100390000F900F90DF91CF91FF91EF91BF91AF91AF
:1003A0009F918F917F916F915F914F913F912F918D
:1003B0001F910F900FBE0F901F9018951F920F92D4
:1003C0000FB60F9211242F933F934F935F936F9328
:1003D0007F938F939F93AF93BF93EF93FF93CF93AD
:1003E000DF9300D000D0CDB7DEB780913601909179
:1003F0003701029731F51A8219821C821B82E8E7C5
:10040000F0E0808191812081318130932F01209310
:100410002E014AE0BE016F5F7F4F0E94120480915F
:100420003501811108C0CE0101960E94050486E2C3
:1004300091E00E9405049091350181E08927809325
:1004400035010F900F900F900F90DF91CF91FF919A
:10045000EF91BF91AF919F918F917F916F915F913C
:100460004F913F912F910F900FBE0F901F901895B5
:100470001F920F920FB60F9211242F933F934F9319
:100480005F936F937F938F939F93AF93BF93EF93FC
:10049000FF9380912E0190912F018034914030F490
:1004A00063E085E290E00E946C0005C063E085E2B5
:1004B00090E00E945F0080913001909131014C9753
:1004C000B0F080913201909133014F9780F065E058
:1004D00085E290E00E945F0064E085E290E00E9487
:1004E0006C00809134018111D3C00E949E008091E4
:1004F0003001909131014C97B0F080913201909190
:100500003301059780F465E085E290E00E946C007D
:1005100064E085E290E00E946C00809134018111DA
:10052000B7C00E949E0080913001909131010A97DE
:10053000B8F480913201909133014F9788F065E0D3
:1005400085E290E00E945F0064E085E290E00E9416
:100550006C0080913401882309F49AC00E948400C1
:1005600080913001909131010A97B8F48091320165
:1005700090913301059788F465E085E290E00E9450
:100580006C0064E085E290E00E945F00809134019D
:10059000882309F47DC00E948400809130019091ED
:1005A00031014C9780F065E085E290E00E946C009C
:1005B00064E085E290E00E946C008091340181113A
:1005C00067C00E949E0080913201909133014F9745
:1005D00080F065E085E290E00E945F0064E085E2E3
:1005E00090E00E946C0080913401811151C00E9402
:1005F0009E0080913001909131010A9720F565E0CD
:1006000085E290E00E945F0064E085E290E00E9455
:100610005F008FEF99EF20E0815090402040E1F79C
:1006200000C0000061E088E290E00E9478008FE363
:100630009FE10197F1F700C0000061E088E290E0DF
:100640000E947800E6CF80913201909133010597A6
:1006500080F465E085E290E00E946C0064E085E251
:1006600090E00E945F0080913401882389F00E940D
:10067000840065E085E290E00E945F0064E085E22E
:1006800090E00E945F008091340181110E948400FB
:10069000FF91EF91BF91AF919F918F917F916F915A
:1006A0005F914F913F912F910F900FBE0F901F9030
:1006B000189594EA9093BC009091BC009923E4F7BC
:1006C0008093BB0084E88093BC008091BC008823A9
:1006D000E4F78091B900887F883121F0803421F4DB
:1006E00080E0089580E0089581E008958093BB0044
:1006F00084E88093BC008091BC008823E4F70895CF
:1007000084EC8093BC008091BC008823E4F7809146
:10071000BB00089584E88093BC008091BC008823CE
:10072000E4F78091BB00089584E98093BC000895AC
:100730001F920F920FB60F9211242F938F939F93B6
:10074000EF93FF938091C0002091C6008C71E091DF
:100750003A01EF5FEF7190913901E91739F0E093B9
:100760003A01F0E0E35CFE4F208301C082E090910B
:100770003801892B80933801FF91EF919F918F91E0
:100780002F910F900FBE0F901F9018951F920F92F0
:100790000FB60F9211248F939F93EF93FF93909135
:1007A0003C0180913B01981769F0E0913B01EF5FBC
:1007B000EF71E0933B01F0E0E35AFE4F80818093BC
:1007C000C60005C0E1ECF0E080818F7D8083FF9161
:1007D000EF919F918F910F900FBE0F901F901895E2
:1007E00020913C012F5F2F7190913B012917E1F37C
:1007F000E22FF0E0E35AFE4F808320933C01E1ECCE
:10080000F0E08081806280830895CF93DF93EC01D4
:1008100003C021960E94F00388818111FACFDF91F5
:10082000CF910895BB274A3031F4992322F4BDE2D9
:10083000909581959F4F0C941E04BB27FB01552773
:10084000AA27880F991FAA1FA41710F0A41B83952D
:100850005051B9F7A05DAA3308F0A95DA1930097A4
:1008600079F7B111B1931192CB010C943704DC01EB
:10087000FC01672F71917723E1F7329704C07C91D7
:100880006D9370836291AE17BF07C8F30895F89413
:02089000FFCF98
:10089200012E00200043656C7369757320646567DF
:1008A200726565730025206F662068756D696469DD
:0E08B2007479000D0A00206C696768740000FC
:00000001FF
