S01000006932635F7363616E2E7372656312
S11300000C9434000C9451000C9451000C94510045
S11300100C9451000C9451000C9451000C94510018
S11300200C9451000C9451000C9451000C94510008
S11300300C9451000C946C000C9451000C945100DD
S11300400C9451000C9451000C9444010C947201D2
S11300500C9451000C9451000C9451000C945100D8
S11300600C9451000C94510011241FBECFEFD8E022
S1130070DEBFCDBF11E0A0E0B1E0E0E2F4E002C0F9
S113008005900D92A432B107D9F721E0A4E2B1E0C2
S113009001C01D92A936B207E1F70E9453000C94E7
S11300A00E020C9400000E94F60087E690E00E9485
S11300B09C01E1E8F0E080818C7F80838081846012
S11300C08083EFE6F0E0808181608083789481E032
S11300D091E00E94CC01FFCF1F920F920FB60F92B6
S11300E011241F932F933F934F935F936F937F93A9
S11300F08F939F93AF93BF93EF93FF93CF93DF932C
S113010000D0CDB7DEB780E390E39A8389838091F2
S11301100001823049F08330E1F1813009F04DC0B3
S113012082E0809300014CC088EB0E94050180E0CE
S11301300E9422010E94400189EB0E9405010E9455
S11301402C014AE0BE016F5F7F4F90E00E94D9010D
S1130150CE0101960E94CC010E943601182F0E9404
S113016040014AE0BE016F5F7F4F812F90E00E9403
S1130170D9018FE191E00E94CC01CE0101960E9449
S1130180CC0181E291E00E94CC0181E080930001E6
S113019017C040E1BE016F5F7F4F8CE590E00E9485
S11301A0D901CE0101960E94CC0181E291E00E9426
S11301B0CC0181E08093000103C081E080930001C1
S11301C00F900F90DF91CF91FF91EF91BF91AF917D
S11301D09F918F917F916F915F914F913F912F915B
S11301E01F910F900FBE0F901F90189587B18F7CB1
S11301F087B988B1806388B9E9EBF0E080818C7FAE
S1130200808388E98093B800089594EA9093BC00B1
S11302109091BC009923E4F78093BB0084E8809319
S1130220BC008091BC008823E4F78091B900887FEA
S1130230883121F0803421F480E0089580E008952D
S113024081E008958093BB0084E88093BC00809192
S1130250BC008823E4F7089584EC8093BC0080916B
S1130260BC008823E4F78091BB00089584E8809360
S1130270BC008091BC008823E4F78091BB00089502
S113028084E98093BC0008951F920F920FB60F92D9
S113029011242F938F939F93EF93FF938091C0002A
S11302A02091C6008C71E0912601EF5FEF7190916F
S11302B02501E91739F0E0932601F0E0E75DFE4FF0
S11302C0208301C082E090912401892B8093240132
S11302D0FF91EF919F918F912F910F900FBE0F90EF
S11302E01F9018951F920F920FB60F9211248F939F
S11302F09F93EF93FF939091280180912701981782
S113030069F0E0912701EF5FEF71E0932701F0E0DE
S1130310E75BFE4F80818093C60005C0E1ECF0E00E
S113032080818F7D8083FF91EF919F918F910F90BA
S11303300FBE0F901F90189510922801109227015C
S11303401092260110922501282F392F33231CF4F3
S113035022E02093C00090789093C5008093C4005D
S113036088E98093C10086E08093C20008952091BB
S113037028012F5F2F71909127012917E1F3E22FB4
S1130380F0E0E75BFE4F808320932801E1ECF0E08E
S11303908081806280830895CF93DF93EC0103C052
S11303A021960E94B70188818111FACFDF91CF9104
S11303B00895BB274A3031F4992322F4BDE2909585
S11303C081959F4F0C94E501BB27FB015527AA2774
S11303D0880F991FAA1FA41710F0A41B83955051CE
S11303E0B9F7A05DAA3308F0A95DA193009779F746
S11303F0B111B1931192CB010C94FE01DC01FC010B
S1130400672F71917723E1F7329704C07C916D9344
S113041070836291AE17BF07C8F30895F894FFCFB5
S1130420010D0A5363616E204932432D62757320B6
S1130430666F7220646576696365733A0D0A002EEF
S10704400020000094
S9030000FC
