:100000000C9434000C943E000C943E000C943E0082
:100010000C943E000C943E000C943E000C943E0068
:100020000C943E000C943E000C943E000C943E0058
:100030000C943E000C943E000C943E000C943E0048
:100040000C943E000C943E000C943E000C943E0038
:100050000C943E000C943E000C943E000C943E0028
:100060000C943E000C943E0011241FBECFEFD8E04C
:10007000DEBFCDBF0E9440000C945E000C940000D7
:1000800084B1806284B984B1806184B985B18F7D87
:1000900085B985B18F7E85B92FEF84E39CE021502F
:1000A00080409040E1F700C0000095B180E28927D0
:1000B00085B995B180E1892785B9EECFF894FFCF56
:00000001FF
